{
  "_format": "hh-sol-artifact-1",
  "contractName": "CrowdFunding",
  "sourceName": "contracts/Crowdfunding.sol",
  "abi": [
    {
      "inputs": [
        {
          "internalType": "uint256",
          "name": "",
          "type": "uint256"
        }
      ],
      "name": "campaigns",
      "outputs": [
        {
          "internalType": "address",
          "name": "owner",
          "type": "address"
        },
        {
          "internalType": "string",
          "name": "title",
          "type": "string"
        },
        {
          "internalType": "string",
          "name": "description",
          "type": "string"
        },
        {
          "internalType": "uint256",
          "name": "target",
          "type": "uint256"
        },
        {
          "internalType": "uint256",
          "name": "deadline",
          "type": "uint256"
        },
        {
          "internalType": "uint256",
          "name": "amountCollected",
          "type": "uint256"
        },
        {
          "internalType": "string",
          "name": "image",
          "type": "string"
        }
      ],
      "stateMutability": "view",
      "type": "function"
    },
    {
      "inputs": [
        {
          "internalType": "address",
          "name": "_owner",
          "type": "address"
        },
        {
          "internalType": "string",
          "name": "_title",
          "type": "string"
        },
        {
          "internalType": "string",
          "name": "_description",
          "type": "string"
        },
        {
          "internalType": "uint256",
          "name": "_target",
          "type": "uint256"
        },
        {
          "internalType": "uint256",
          "name": "_deadline",
          "type": "uint256"
        },
        {
          "internalType": "string",
          "name": "_image",
          "type": "string"
        }
      ],
      "name": "createCampaign",
      "outputs": [
        {
          "internalType": "uint256",
          "name": "",
          "type": "uint256"
        }
      ],
      "stateMutability": "nonpayable",
      "type": "function"
    },
    {
      "inputs": [
        {
          "internalType": "uint256",
          "name": "_id",
          "type": "uint256"
        }
      ],
      "name": "donateToCampaign",
      "outputs": [],
      "stateMutability": "payable",
      "type": "function"
    },
    {
      "inputs": [],
      "name": "getCampaign",
      "outputs": [
        {
          "components": [
            {
              "internalType": "address",
              "name": "owner",
              "type": "address"
            },
            {
              "internalType": "string",
              "name": "title",
              "type": "string"
            },
            {
              "internalType": "string",
              "name": "description",
              "type": "string"
            },
            {
              "internalType": "uint256",
              "name": "target",
              "type": "uint256"
            },
            {
              "internalType": "uint256",
              "name": "deadline",
              "type": "uint256"
            },
            {
              "internalType": "uint256",
              "name": "amountCollected",
              "type": "uint256"
            },
            {
              "internalType": "string",
              "name": "image",
              "type": "string"
            },
            {
              "internalType": "address[]",
              "name": "donators",
              "type": "address[]"
            },
            {
              "internalType": "uint256[]",
              "name": "donations",
              "type": "uint256[]"
            }
          ],
          "internalType": "struct CrowdFunding.Campaign[]",
          "name": "",
          "type": "tuple[]"
        }
      ],
      "stateMutability": "view",
      "type": "function"
    },
    {
      "inputs": [
        {
          "internalType": "uint256",
          "name": "_id",
          "type": "uint256"
        }
      ],
      "name": "getDonators",
      "outputs": [
        {
          "internalType": "address[]",
          "name": "",
          "type": "address[]"
        },
        {
          "internalType": "uint256[]",
          "name": "",
          "type": "uint256[]"
        }
      ],
      "stateMutability": "view",
      "type": "function"
    },
    {
      "inputs": [],
      "name": "numberOfCampaigns",
      "outputs": [
        {
          "internalType": "uint256",
          "name": "",
          "type": "uint256"
        }
      ],
      "stateMutability": "view",
      "type": "function"
    }
  ],
  "bytecode": "0x60806040526000600155348015601457600080fd5b50611921806100246000396000f3fe6080604052600436106100555760003560e01c806307ca140d1461005a5780630fa91fa914610085578063141961bc146100c3578063236b8e3a1461010657806342a4fda8146101315780639943e3a11461014d575b600080fd5b34801561006657600080fd5b5061006f61018a565b60405161007c9190610b68565b60405180910390f35b34801561009157600080fd5b506100ac60048036038101906100a79190610bc3565b610190565b6040516100ba929190610d9e565b60405180910390f35b3480156100cf57600080fd5b506100ea60048036038101906100e59190610bc3565b6102a0565b6040516100fd9796959493929190610e74565b60405180910390f35b34801561011257600080fd5b5061011b61049a565b60405161012891906111c3565b60405180910390f35b61014b60048036038101906101469190610bc3565b61086a565b005b34801561015957600080fd5b50610174600480360381019061016f9190611346565b6109ca565b6040516101819190610b68565b60405180910390f35b60015481565b6060806000808481526020019081526020016000206007016000808581526020019081526020016000206008018180548060200260200160405190810160405280929190818152602001828054801561023e57602002820191906000526020600020905b8160009054906101000a900473ffffffffffffffffffffffffffffffffffffffff1673ffffffffffffffffffffffffffffffffffffffff16815260200190600101908083116101f4575b505050505091508080548060200260200160405190810160405280929190818152602001828054801561029057602002820191906000526020600020905b81548152602001906001019080831161027c575b5050505050905091509150915091565b60006020528060005260406000206000915090508060000160009054906101000a900473ffffffffffffffffffffffffffffffffffffffff16908060010180546102e990611456565b80601f016020809104026020016040519081016040528092919081815260200182805461031590611456565b80156103625780601f1061033757610100808354040283529160200191610362565b820191906000526020600020905b81548152906001019060200180831161034557829003601f168201915b50505050509080600201805461037790611456565b80601f01602080910402602001604051908101604052809291908181526020018280546103a390611456565b80156103f05780601f106103c5576101008083540402835291602001916103f0565b820191906000526020600020905b8154815290600101906020018083116103d357829003601f168201915b50505050509080600301549080600401549080600501549080600601805461041790611456565b80601f016020809104026020016040519081016040528092919081815260200182805461044390611456565b80156104905780601f1061046557610100808354040283529160200191610490565b820191906000526020600020905b81548152906001019060200180831161047357829003601f168201915b5050505050905087565b6060600060015467ffffffffffffffff8111156104ba576104b961121b565b5b6040519080825280602002602001820160405280156104f357816020015b6104e0610aed565b8152602001906001900390816104d85790505b50905060005b600154811015610862576000806000838152602001908152602001600020905080604051806101200160405290816000820160009054906101000a900473ffffffffffffffffffffffffffffffffffffffff1673ffffffffffffffffffffffffffffffffffffffff1673ffffffffffffffffffffffffffffffffffffffff16815260200160018201805461058c90611456565b80601f01602080910402602001604051908101604052809291908181526020018280546105b890611456565b80156106055780601f106105da57610100808354040283529160200191610605565b820191906000526020600020905b8154815290600101906020018083116105e857829003601f168201915b5050505050815260200160028201805461061e90611456565b80601f016020809104026020016040519081016040528092919081815260200182805461064a90611456565b80156106975780601f1061066c57610100808354040283529160200191610697565b820191906000526020600020905b81548152906001019060200180831161067a57829003601f168201915b505050505081526020016003820154815260200160048201548152602001600582015481526020016006820180546106ce90611456565b80601f01602080910402602001604051908101604052809291908181526020018280546106fa90611456565b80156107475780601f1061071c57610100808354040283529160200191610747565b820191906000526020600020905b81548152906001019060200180831161072a57829003601f168201915b50505050508152602001600782018054806020026020016040519081016040528092919081815260200182805480156107d557602002820191906000526020600020905b8160009054906101000a900473ffffffffffffffffffffffffffffffffffffffff1673ffffffffffffffffffffffffffffffffffffffff168152602001906001019080831161078b575b505050505081526020016008820180548060200260200160405190810160405280929190818152602001828054801561082d57602002820191906000526020600020905b815481526020019060010190808311610819575b50505050508152505083838151811061084957610848611487565b5b60200260200101819052505080806001019150506104f9565b508091505090565b60003490506000806000848152602001908152602001600020905080600701339080600181540180825580915050600190039060005260206000200160009091909190916101000a81548173ffffffffffffffffffffffffffffffffffffffff021916908373ffffffffffffffffffffffffffffffffffffffff1602179055508060080182908060018154018082558091505060019003906000526020600020016000909190919091505560008160000160009054906101000a900473ffffffffffffffffffffffffffffffffffffffff1673ffffffffffffffffffffffffffffffffffffffff168360405161095f906114e7565b60006040518083038185875af1925050503d806000811461099c576040519150601f19603f3d011682016040523d82523d6000602084013e6109a1565b606091505b5050905080156109c4578282600501546109bb919061152b565b82600501819055505b50505050565b60008060008060015481526020019081526020016000209050428411610a25576040517f08c379a0000000000000000000000000000000000000000000000000000000008152600401610a1c906115d1565b60405180910390fd5b878160000160006101000a81548173ffffffffffffffffffffffffffffffffffffffff021916908373ffffffffffffffffffffffffffffffffffffffff16021790555086816001019081610a79919061179d565b5085816002019081610a8b919061179d565b508481600301819055508381600401819055506000816005018190555082816006019081610ab9919061179d565b5060016000815480929190610acd9061186f565b919050555060018054610ae091906118b7565b9150509695505050505050565b604051806101200160405280600073ffffffffffffffffffffffffffffffffffffffff16815260200160608152602001606081526020016000815260200160008152602001600081526020016060815260200160608152602001606081525090565b6000819050919050565b610b6281610b4f565b82525050565b6000602082019050610b7d6000830184610b59565b92915050565b6000604051905090565b600080fd5b600080fd5b610ba081610b4f565b8114610bab57600080fd5b50565b600081359050610bbd81610b97565b92915050565b600060208284031215610bd957610bd8610b8d565b5b6000610be784828501610bae565b91505092915050565b600081519050919050565b600082825260208201905092915050565b6000819050602082019050919050565b600073ffffffffffffffffffffffffffffffffffffffff82169050919050565b6000610c4782610c1c565b9050919050565b610c5781610c3c565b82525050565b6000610c698383610c4e565b60208301905092915050565b6000602082019050919050565b6000610c8d82610bf0565b610c978185610bfb565b9350610ca283610c0c565b8060005b83811015610cd3578151610cba8882610c5d565b9750610cc583610c75565b925050600181019050610ca6565b5085935050505092915050565b600081519050919050565b600082825260208201905092915050565b6000819050602082019050919050565b610d1581610b4f565b82525050565b6000610d278383610d0c565b60208301905092915050565b6000602082019050919050565b6000610d4b82610ce0565b610d558185610ceb565b9350610d6083610cfc565b8060005b83811015610d91578151610d788882610d1b565b9750610d8383610d33565b925050600181019050610d64565b5085935050505092915050565b60006040820190508181036000830152610db88185610c82565b90508181036020830152610dcc8184610d40565b90509392505050565b610dde81610c3c565b82525050565b600081519050919050565b600082825260208201905092915050565b60005b83811015610e1e578082015181840152602081019050610e03565b60008484015250505050565b6000601f19601f8301169050919050565b6000610e4682610de4565b610e508185610def565b9350610e60818560208601610e00565b610e6981610e2a565b840191505092915050565b600060e082019050610e89600083018a610dd5565b8181036020830152610e9b8189610e3b565b90508181036040830152610eaf8188610e3b565b9050610ebe6060830187610b59565b610ecb6080830186610b59565b610ed860a0830185610b59565b81810360c0830152610eea8184610e3b565b905098975050505050505050565b600081519050919050565b600082825260208201905092915050565b6000819050602082019050919050565b600082825260208201905092915050565b6000610f4082610de4565b610f4a8185610f24565b9350610f5a818560208601610e00565b610f6381610e2a565b840191505092915050565b600082825260208201905092915050565b6000610f8a82610bf0565b610f948185610f6e565b9350610f9f83610c0c565b8060005b83811015610fd0578151610fb78882610c5d565b9750610fc283610c75565b925050600181019050610fa3565b5085935050505092915050565b600082825260208201905092915050565b6000610ff982610ce0565b6110038185610fdd565b935061100e83610cfc565b8060005b8381101561103f5781516110268882610d1b565b975061103183610d33565b925050600181019050611012565b5085935050505092915050565b6000610120830160008301516110656000860182610c4e565b506020830151848203602086015261107d8282610f35565b915050604083015184820360408601526110978282610f35565b91505060608301516110ac6060860182610d0c565b5060808301516110bf6080860182610d0c565b5060a08301516110d260a0860182610d0c565b5060c083015184820360c08601526110ea8282610f35565b91505060e083015184820360e08601526111048282610f7f565b9150506101008301518482036101008601526111208282610fee565b9150508091505092915050565b6000611139838361104c565b905092915050565b6000602082019050919050565b600061115982610ef8565b6111638185610f03565b93508360208202850161117585610f14565b8060005b858110156111b15784840389528151611192858261112d565b945061119d83611141565b925060208a01995050600181019050611179565b50829750879550505050505092915050565b600060208201905081810360008301526111dd818461114e565b905092915050565b6111ee81610c3c565b81146111f957600080fd5b50565b60008135905061120b816111e5565b92915050565b600080fd5b600080fd5b7f4e487b7100000000000000000000000000000000000000000000000000000000600052604160045260246000fd5b61125382610e2a565b810181811067ffffffffffffffff821117156112725761127161121b565b5b80604052505050565b6000611285610b83565b9050611291828261124a565b919050565b600067ffffffffffffffff8211156112b1576112b061121b565b5b6112ba82610e2a565b9050602081019050919050565b82818337600083830152505050565b60006112e96112e484611296565b61127b565b90508281526020810184848401111561130557611304611216565b5b6113108482856112c7565b509392505050565b600082601f83011261132d5761132c611211565b5b813561133d8482602086016112d6565b91505092915050565b60008060008060008060c0878903121561136357611362610b8d565b5b600061137189828a016111fc565b965050602087013567ffffffffffffffff81111561139257611391610b92565b5b61139e89828a01611318565b955050604087013567ffffffffffffffff8111156113bf576113be610b92565b5b6113cb89828a01611318565b94505060606113dc89828a01610bae565b93505060806113ed89828a01610bae565b92505060a087013567ffffffffffffffff81111561140e5761140d610b92565b5b61141a89828a01611318565b9150509295509295509295565b7f4e487b7100000000000000000000000000000000000000000000000000000000600052602260045260246000fd5b6000600282049050600182168061146e57607f821691505b60208210810361148157611480611427565b5b50919050565b7f4e487b7100000000000000000000000000000000000000000000000000000000600052603260045260246000fd5b600081905092915050565b50565b60006114d16000836114b6565b91506114dc826114c1565b600082019050919050565b60006114f2826114c4565b9150819050919050565b7f4e487b7100000000000000000000000000000000000000000000000000000000600052601160045260246000fd5b600061153682610b4f565b915061154183610b4f565b9250828201905080821115611559576115586114fc565b5b92915050565b7f54686520646561646c696e652073686f756c642062652061206461746520696e60008201527f2074686520667574757265000000000000000000000000000000000000000000602082015250565b60006115bb602b83610def565b91506115c68261155f565b604082019050919050565b600060208201905081810360008301526115ea816115ae565b9050919050565b60008190508160005260206000209050919050565b60006020601f8301049050919050565b600082821b905092915050565b6000600883026116537fffffffffffffffffffffffffffffffffffffffffffffffffffffffffffffffff82611616565b61165d8683611616565b95508019841693508086168417925050509392505050565b6000819050919050565b600061169a61169561169084610b4f565b611675565b610b4f565b9050919050565b6000819050919050565b6116b48361167f565b6116c86116c0826116a1565b848454611623565b825550505050565b600090565b6116dd6116d0565b6116e88184846116ab565b505050565b5b8181101561170c576117016000826116d5565b6001810190506116ee565b5050565b601f82111561175157611722816115f1565b61172b84611606565b8101602085101561173a578190505b61174e61174685611606565b8301826116ed565b50505b505050565b600082821c905092915050565b600061177460001984600802611756565b1980831691505092915050565b600061178d8383611763565b9150826002028217905092915050565b6117a682610de4565b67ffffffffffffffff8111156117bf576117be61121b565b5b6117c98254611456565b6117d4828285611710565b600060209050601f83116001811461180757600084156117f5578287015190505b6117ff8582611781565b865550611867565b601f198416611815866115f1565b60005b8281101561183d57848901518255600182019150602085019450602081019050611818565b8683101561185a5784890151611856601f891682611763565b8355505b6001600288020188555050505b505050505050565b600061187a82610b4f565b91507fffffffffffffffffffffffffffffffffffffffffffffffffffffffffffffffff82036118ac576118ab6114fc565b5b600182019050919050565b60006118c282610b4f565b91506118cd83610b4f565b92508282039050818111156118e5576118e46114fc565b5b9291505056fea2646970667358221220597759cfc31696275e2ec81d6d6f30aae4005ba8517f4a5c97f91a31b83fbecb64736f6c634300081d0033",
  "linkReferences": {},
  "deployedLinkReferences": {}
}